:100000000C94BE090C94E6090C94E6090C94E609DC
:100010000C94E6090C94E6090C94E6090C94E609A4
:100020000C94E6090C94E6090C94E6090C94091D5D
:100030000C94E6090C94E6090C94E6090C94E60984
:100040000C947C1D0C94E6090C94E6090C94E609CA
:100050000C94E6090C94E6090C94E6090C94E60964
:100060000C94E6090C94E6091D130404040404042A
:100070000404040404040404040404040404040440
:100080000404040404040404000004000000040048
:100090000000000000000000000000000000000060
:1000A0000000000404000000000001040101000041
:1000B000000000000000000000000404040404002C
:1000C0000404010000000404040001040400000012
:1000D0000000010000040400000300040004040107
:1000E0000100000000040404000000020000010000
:1000F00000000000000004000400040404040000E8
:1001000001010400000000000400010000000000E4
:1001100000000000000400040400000004040404C3
:1001200000000000000004000004040400000004BB
:1001300004040000040401000000000000000000AE
:1001400000000004000400000000000004000001A2
:100150000004040101000000000000000404040089
:10016000040004010000000004000004040404046E
:10017000040404000100000004040400000400045E
:100180000401000004000100040000040400000059
:100190000000000000000000010004040400000151
:1001A000040000000400000004040000000100003E
:1001B0000000000101000400000004040404000029
:1001C0000000000000040400000000040404040413
:1001D00004040404000000000000000004040404FF
:1001E0000400040400000000000000000000000003
:1001F00000000100000001040400000000040004ED
:1002000004040404000000000000000000000001DD
:1002100000000004000000000101040004040104C7
:1002200004000000040000000004000000000000C2
:100230000000000004040404000404040104040495
:1002400000040000000004000000010101000100A2
:100250000000000000000404010401040104040083
:100260000000000400000000000000000101010087
:10027000000000040404040404040404040404044A
:10028000040404040404040404040404040404042E
:10029000041B130000000404040404040404040404
:1002A000040404040404040404040400000000041E
:1002B0000400000000000000000000000400000036
:1002C0000000000000000400000404040401000019
:1002D0000000000000010104010000000101010014
:1002E00001040400040000040400000400000004F1
:1002F00004040404000001040404000404000404D1
:1003000000000004000004040000000000000000E1
:1003100004040400040404000004040000000404B5
:1003200000000404010101010000000000000000C1
:1003300000000000040403000000000000000404AA
:100340000404040404000000000000000000000495
:100350000404000000000000000004000000040489
:10036000040000000000000000040400040000007D
:10037000000001000000040004000004040000006C
:100380000000000000040004000000000004000061
:100390000000040000000004040000000000000051
:1003A0000400040404040000040400000000000031
:1003B0000000000000000004040404040000000425
:1003C000040404040000000000000200000000001B
:1003D0000000000000000400000004000000000015
:1003E0000000000000040000000000000000000009
:1003F00000040000000400000000000000000004F1
:1004000004000000000404040404040404000000C8
:1004100004000000000000000004040000000000D0
:1004200000000000000004000000000400000000C4
:1004300000000000000001000000000000000000BB
:100440000104000000000401000000000404040492
:10045000040404040404040000000101040000007A
:10046000000401010000040400000000000000007E
:10047000000404000101010400000000040404045D
:100480000404000000000000000000000004040458
:100490000404040014100000000000000000040424
:1004A0000400000000000000000000000000000048
:1004B0000004000000040000000000000000000034
:1004C0000000000004000000000004000004040418
:1004D000040400000000000400000000000000040C
:1004E0000400000000040000000004000000000000
:1004F00001000000000000000004000000040000F3
:1005000000000000010100000000000001040000E4
:1005100004000000000000000404040000000001CA
:1005200001040004000000000000000000000000C2
:1005300002000404040404000000000000000000A5
:10054000000000000100000000040403000000009F
:100550000000000000000004040400000004040483
:10056000000000000404000000040000000000007F
:100570000104000400000000040401000004040061
:100580000000040404040004000000000404040447
:10059000040404000004040000000004040400003B
:1005A000040000000000040004040000000000003B
:1005B0000004000404000000000004040400000023
:1005C000000000000004040400000000000000001F
:1005D0000000000000001B110004040400000000E3
:1005E00000000004040404000000040404040404E3
:1005F00004000004000000040000000000040000EB
:1006000000000400040000000000000004000400DA
:1006100000000004000000040000000000040400CA
:1006200000000000000000000404010000000004BD
:1006300004040000000004000400000000000404A2
:10064000040000040401010000000000000000009C
:10065000040400000000000004040004000004047E
:100660000404040000000000000004040000000076
:100670000000000000000403000400000004040067
:100680000000000000000000000000040400000062
:100690000004040004000004000000000100040045
:1006A000000000000004000004000000000000043E
:1006B0000000040000000001040004000000000429
:1006C000000000040000000000000400040000001E
:1006D0000404040000000400000000040000040002
:1006E00000000000010400040000000000000400FD
:1006F00004000000000000040400000000000101EC
:1007000004040000000000000000040000000000DD
:1007100000000000000004040404040404000000BD
:1007200000000000000000000001000000000000C8
:1007300000000000000004040000000001000000B0
:10074000000000040404000000000000000000009D
:100750000104040000000404040000000000000084
:10076000000000000000000000000101040400007F
:100770000000000000000100000000000000010077
:100780000002000001010104040404040404040440
:100790000404040404040404040404040404040419
:1007A000040404180E0000040000000404040404FF
:1007B0000000000404000000040404000000040021
:1007C0000400040000000000040004000004000411
:1007D0000000000400000400000404000000000009
:1007E00000040400000004040000000004000400F1
:1007F00000000400000000000000040000000004ED
:1008000000000000040004000000000000000000E0
:1008100000000000000000000000000104000400CF
:1008200000000000000000000000000000000000C8
:1008300000000001040404000000000000000000AB
:10084000000000000000000000000101040403009B
:100850000000010000000000000000000000000097
:10086000000004040404040000000400010000006F
:100870000000040000000004040004000000040064
:100880000000040001000000000404000100020454
:10089000040404000000040400000400010101003D
:1008A0000004040001010104000000000000000435
:1008B0000000040404040404000404040404040404
:1008C0000000000000000004040004000000000418
:1008D0000404000000000000000000000000000010
:1008E00004040400000000000000000000000000FC
:1008F0000000000000150D000404040000000000CA
:1009000000000000000000000404040400040000D3
:1009100004040404040404040404040404000000A3
:1009200004040400000000000000000000000000BB
:1009300000000000000404030000000000000000AC
:10094000000000000000000000000404040000009B
:100950000000000000000000000000000000000493
:100960000004000000000000000000000000000083
:10097000000001010400040101000000000000006B
:10098000000400000100000404040004010101004F
:10099000000000000000040201010100040000004A
:1009A000040101010100000000000004040404042B
:1009B0000004000000040404040400000000040417
:1009C0000400000004040400000000000000040013
:1009D0000000010400000000000000000000000012
:1009E00000000004040004040400000000000000F3
:1009F00000000000000000000004040400000000EB
:100A00000000000000000000160D000000000004BF
:100A100004040000000004040404040404040400AA
:100A200000040404040000000404040400000000A6
:100A300000000000000404000000000000000000AE
:100A4000000000000000000000000004040000009E
:100A50000000000000000000000000000000000096
:100A6000000404000000000004000000000000007A
:100A7000000000000000000404000000000004006A
:100A8000000000000000000000000000000404005E
:100A9000000000000401010101000000000000004E
:100AA000000000040403000000040404040404041F
:100AB000020000000000000000040404000404041C
:100AC0000000000000040400040000000000010415
:100AD0000004000400000000000000000400040402
:100AE00000000001010400040004000000000000F8
:100AF00000000400040400000101010400040404D7
:100B000000000000000000000400040404040404C9
:100B100004040000000000000000000000000404C5
:100B20000400000000000000181000000000000099
:100B300000000000000000000000000004000000B1
:100B400000000000000000000000000000000000A5
:100B5000000000040004000000000000000000008D
:100B60000004000000000000000004000000040079
:100B7000000000000000000004000400000000006D
:100B80000004000000000004000000000004040451
:100B9000000000040000000004000000000000004D
:100BA0000400000004000000000000000400000435
:100BB000000000000000000000040004000000002D
:100BC000000000000004040000000000000000001D
:100BD000000400040000000000000000000000000D
:100BE00000000000000000000104000400000000FC
:100BF00000000000000000000000000000000001F4
:100C000001040004000000000000000000000000DB
:100C100000000002000000040404040400000000BE
:100C200004000000000000000000000400000004B8
:100C300000000403000000000400010000000000A8
:100C4000000000040404040400000404040404007C
:100C50000400010000000100000404040000000082
:100C60000000000000000400040001000400040172
:100C7000000400000000000000000000000004006C
:100C8000040404040404040404040000000000003C
:100C90000000000000000404040000000000000048
:100CA00000000000000000000000130B0004000022
:100CB0000000000000000000000000000000000034
:100CC00004000000040404040404040404040404F0
:100CD0000400040004000400000000000000000004
:100CE00000000000040400000400000000000000F8
:100CF00000000000000000040400000000000000EC
:100D000000000000000000000001040400000000DA
:100D100000000000000000000000000101040400C9
:100D200004040400000000020000000401000404A8
:100D30000004000400040000000004000004040497
:100D40000404000004000400040101000404000085
:100D50000400000000000004030400040404040470
:100D60000400040400000000000004040400040463
:100D700000000004040400000000000000160A0047
:100D80000400000000040400000000000000000453
:100D9000040000000000040000000000000000004B
:100DA0000000000000000004000000040400000037
:100DB000000000000000000000000000000004002F
:100DC000000403000000000000000000000000001C
:100DD0000000000000040004040000000000000007
:100DE00000000000000000000000000004000400FB
:100DF00000000000000000000000040000010000EE
:100E000000000400040000000000000000000000DA
:100E100004010001010200000400040404040400B1
:100E2000000004040404040404040404040404008E
:100E300000000000040000010400000000000000A9
:100E4000000000000000000000000404040404008E
:100E50000000000000000000000000140604000074
:100E60000000000000000000000000000000000082
:100E7000040400000000000000000000000000006A
:100E8000000000000404000000000000000000005A
:100E90000000000000000000040400000004000046
:100EA0000000000000040000000000000404030033
:100EB0000004000000040001000400010002000022
:100EC00004040404040404040404040404040404E2
:100ED00004040404044023FF80F80000000000FF25
:100EE00080F80000000000DD80D80000000000FF56
:100EF00080F80000000000FFF8F8FFF8FF9F1FF8DF
:100F0000F8F8FFF8FF9F1FD8D8D8DDD8DB9B1BF877
:100F1000F8F8FFF8FF9F1FFFF8F8FFF8FF9FFFFFAB
:100F200080F8F8F8F81FF0DD80D8D8D8D81BB0FFCB
:100F300080F8F8F8F81FF0FFF8F8FFF8FF9FFFF8C7
:100F4000F8F8FFF8FF9F1FD8D8D8DDD8DD9B1BF835
:100F5000F8F8FFF8FF9F1FFFF8F8FFF8FF9F1FFF4B
:100F600080000000000000DD800000F0000000FFB5
:100F7000800001D8000000FF8000004C220C00001F
:100F800000000044131400000FF1C02509983F0031
:100F90000813F0258A5121000812402CCA6E210046
:100FA0000812201871802100081140300000230031
:100FB0000812A0400000210008108000000021005D
:100FC0000FF3600000003FDFDFDFDC037F7F7FDFA8
:100FD000DFDFDC037F7F7F0000000000000000FEF9
:100FE000FEFEFC03FBFBFBFEFEFEFC03FBFBFB0823
:100FF0000782442810284482080702048848503099
:10100000200808387E48442854106C08081C7E12BA
:1010100022142A08360808FF818181818181FF0816
:10102000087E4242424642427E0808FBFB00FEFE2A
:1010300000FBFB03053F213F1208120A100A0E1C99
:101040000E0C1E0C141A14161F161E131E1E1B1E29
:101050001E1F1E3F213F3A2F3A173D173F213F18D1
:101060001F02040A041F0E04040E1F0A1F0A0E0E9C
:101070001F04110E2E252E2F2A2E262929021F028B
:10108000081F08150E04040E150E15151B151B045C
:101090000604040C040000000017000300031F0AEC
:1010A0001F16371A1904130A153A000300000E110F
:1010B000110E000A040A040E0400300004040400A7
:1010C00010001804031F111F121F101D15171115F2
:1010D0001F07041F17151D1F151D01011F1F151FB9
:1010E00017151F000A00003200040A110A0A0A112B
:1010F0000A040115020E11171E051E1F150A0E11F6
:101100000A1F110E1F15111F05010E111D1F041FAF
:10111000111F1108100F1F041B1F10101F061F1E88
:10112000040F0E110E1F09060E112E1F051A12159F
:1011300009011F011F101F0F180F1F0C1F1B041B7D
:10114000031C03191513001F11030418111F0002BB
:1011500001022020200001020C121E1F120C0C1292
:10116000120C121F0C1A14041E05242A1E1F021C26
:10117000141D1020201D1F0814111F101E041E1EF8
:10118000021C0C120C3E0A040C123E1E0402141621
:101190000A020F120E101E0E100E1E081E120C1246
:1011A00026281E322A26041E21001F00211E0401AB
:1011B00002013F213F0A4E6F205344206361726455
:1011C000206F720A6E6F204C4F414445522E4845A5
:1011D000580A0A153A45786974001D20466C6173F7
:1011E00068696E670A20206C6F616465722E2E2E0E
:1011F0000A0A444F4E2754205455524E204F46461B
:1012000021000A0A153A49676E6F7265006D560A29
:101210000A504C45415345205455524E204F4646A6
:1012200020004C4F57204241545445525921200030
:1012300017534400161378001613140015102000DD
:101240001520100000540A03E181867F3E186D834B
:101250000F0F0E0183866033186DC3198F1803C3F7
:101260008E6033186DE330CF1803C39E603630CDE7
:10127000E360CF3006C79E7E3E30CDB360CF300CEA
:10128000C6F6603330D9B660CF33CFCCF66061B0EC
:10129000DB1E60CF30D86CE6C061B0DB1E618F19F9
:1012A000986CC6C063B19B0E330F0FB078C6FF7E3B
:1012B0001F1B061E0F050089300802380249786896
:1012C000140000F6E8DBCFC3B8AEA49B928A827B01
:1012D000746E68625C57524E4945413E3A3734312C
:1012E0002E2C29272523211F1D1C1A19171615140A
:1012F000131211100F0E0D0C0B0A090807064500FA
:10130000680100000500680138010000050038018F
:10131000680100001C1318130101FF030101F7030A
:1013200000000008000201000003040700000000A4
:10133000000000000102040810204080010204089F
:10134000102001020408102004040404040404040E
:10135000020202020202030303030303000000006F
:1013600023002600290000000000250028002B0093
:1013700000000000240027002A00310F11241FBEA6
:10138000CFEFD8E0DEBFCDBF11E0A0E0B1E0EEE7E7
:10139000F8E402C005900D92A436B107D9F724E015
:1013A000A4E6B1E001C01D92AB39B207E1F713E149
:1013B000CCE7D3E104C02297FE010E94ED22CA3798
:1013C000D107C9F70E942A210C943D240C940000F7
:1013D0002091F70190E0629F800D911D1124E09112
:1013E000FE01F091FF01E80FF91F849108950F931A
:1013F0001F93CF93DF9310925402E091FD01F0E030
:10140000EE0FFF1FE65FFE4F80819181FC0124916A
:101410002093F7013196E491E093F80102969093BE
:10142000FF018093FE01C0E08091F601C81760F4CF
:10143000EC2FF0E0EE0FFF1FEA59FE4F8081918103
:101440000E943B21CF5FF0CF1092F60100E0809127
:10145000F801081708F042C088E0089FE001112455
:10146000649710E08091F7011817B0F5602F812F75
:101470000E94E809823099F4F8E01F9F900111243E
:10148000265231093093FC012093FB01D093FA01DD
:10149000C093F9011093F5010093F4011BC0813052
:1014A000C9F483E090E00E943921DC011C9311967D
:1014B0000C93119712961C921297E091F60181E01D
:1014C0008E0F8093F601F0E0EE0FFF1FEA59FE4FFA
:1014D000B183A0831F5FC6CF0F5FB9CFDF91CF91DC
:1014E0001F910F910895CF92DF92EF92FF920F9389
:1014F0001F93CF93DF93C12C8091F801C81610F091
:10150000C0E04AC088E0C89E70011124D12C8091AF
:10151000F701D81690F528E0D29EE0011124209121
:10152000FB013091FC01C21BD30B2091F9013091DA
:10153000FA01AE01485F5F4F4F355105E0F4870176
:10154000021B130B9801285F3F4F2D34310598F48F
:101550006C2D8D2D0E94E809833019F42FE130E1C4
:1015600004C0843041F429E230E1402F6C2F8EE436
:1015700092E00E946613D394CACFC394BDCFEC2FE0
:10158000F0E0EE0FFF1FEA59FE4F0190F081E02DD1
:101590008281882331F0CF5F8091F601C81778F3FC
:1015A00028C0608128E0629FB00111248091FB0176
:1015B0009091FC01681B790B41818091F901909118
:1015C000FA019B01285F3F4F2F35310520F728E0B6
:1015D000429FA0011124481B590BCA0108968D3463
:1015E0009105C8F625E130E18EE492E00E94661391
:1015F000D2CF0091F50188E0089F800111248091ED
:10160000FB019091FC01081B190BC091F40128E02B
:10161000C29FE00111248091F9019091FA01C81B49
:10162000D90B780188E0E80EF11C2FE5E216F104F1
:10163000A0F4CE0108968D34910578F480912001B4
:10164000882319F02BE030E102C021E030E14C2F7B
:10165000602F8EE492E00E9466138091F20188234D
:10166000C9F08FE5E816F104A8F4CD34D10590F463
:10167000AE014850510925E130E1602F8EE492E03F
:10168000DF91CF911F910F91FF90EF90DF90CF905E
:101690000C946613DF91CF911F910F91FF90EF9003
:1016A000DF90CF900895CF93DF93C82FD62F0E945D
:1016B000E8098430A9F08091F601A6E6B1E020E0C7
:1016C000281761F0ED91FD91928191110BC030814D
:1016D000C31308C03181D31305C006C091E004C014
:1016E00090E002C02F5FECCF892FDF91CF9108955A
:1016F000EF92FF920F931F93CF93DF931F92CDB77B
:10170000DEB77C01162F01E0040F602F812F498383
:101710000E94530B4981882311F0402FF4CFF70129
:101720001083418312820F90DF91CF911F910F910F
:10173000FF90EF9008950E94730A80E092E00E946B
:101740006F178823D1F364E08AE092E00E946D1065
:10175000811142C060E08AE092E00E946410882318
:1017600049F08091FB019091FC0108979093FC0156
:101770008093FB0162E08AE092E00E94641088237B
:1017800049F08091FB019091FC0108969093FC0137
:101790008093FB0161E08AE092E00E94641088235C
:1017A00049F08091F9019091FA0108979093FA011C
:1017B0008093F90163E08AE092E00E94641088233C
:1017C00009F4B9CF8091F9019091FA0108969093AC
:1017D000FA018093F901AFCF0895CF93C091F5013D
:1017E00080912001882311F08FEF01C081E0C80FA4
:1017F0006091F4018C2F0E94530B811159C06091AC
:10180000F40161508C2F0E94530B882309F450C0BF
:101810006091F40161508091F5010E94530B88237F
:1018200009F446C08091F201882389F06091F401A7
:1018300062508C2F0E94530B8823D1F16091F401E8
:1018400062508091F5010E94530B882389F18091A9
:10185000F40181508093F401C093F5018091F90166
:101860009091FA0108979093FA018093F9012091E1
:10187000FB013091FC0180912001811116C088E0AC
:1018800090E0820F931F9093FC018093FB0185E20F
:1018900092E00E94591D809164019091650101962A
:1018A000909365018093640103C088EF9FEFE9CFB7
:1018B000CF910895EF92FF920F931F93CF931092C1
:1018C000650110926401C1E080E092E00E946F1710
:1018D0008823D1F360E08AE092E00E9464108823BC
:1018E000D9F18091F5016091F40181500E94530B70
:1018F000882359F18091F201882359F06091F40115
:1019000061508091F50181500E94530B882309F4A6
:1019100046C18091F50181508093F5018091FB01D2
:101920009091FC0108979093FC018093FB0185E264
:1019300092E00E94591D8091640190916501019689
:10194000909365018093640105C08091200181110D
:101950000E94ED0BC093200162E08AE092E00E94B9
:1019600064108823E1F18091F5016091F4018F5FAB
:101970000E94530B882359F18091F201882359F07A
:101980006091F40161508091F5018F5F0E94530BCB
:10199000882309F417C18091F5018F5F8093F501C9
:1019A0008091FB019091FC0108969093FC0180933B
:1019B000FB0185E292E00E94591D809164019091A3
:1019C00065010196909365018093640106C0809142
:1019D0002001811102C00E94ED0B1092200163E0F2
:1019E0008AE092E00E946410882309F46DC020917F
:1019F000F2018091F5016091F40190912001222380
:101A0000F9F0992311F01FEF01C011E0180F615098
:101A1000812F0E94530B882309F456C04091F40192
:101A20004150E091F301F0E0EE0FFF1FEA59FE4F45
:101A3000612F808191810E94780B1092F20137C052
:101A4000992311F09FEF01C091E06150890F0E942E
:101A5000530B8823C9F16091F40161508091F50125
:101A60000E94530B882381F12091F6013091F401FB
:101A70008091F5019FEF980F8F5F409120014111F8
:101A800001C0982FA6E6B1E080E08217E9F0ED9161
:101A9000FD9142814111A9C040819413A6C04181AA
:101AA0003413A3C0C093F201C2838093F30185E293
:101AB00092E00E942D1D8091640190916501019634
:101AC000909365018093640161E08AE092E00E9456
:101AD000641081110E94ED0B64E08AE092E00E94A4
:101AE0006410882391F0E090FB01F090FC010091DC
:101AF000F9011091FA010E949B0BF092FC01E09217
:101B0000FB011093FA010093F9014AE065E08AE0D5
:101B100092E00E947610882361F00E94F70985E226
:101B200092E00E94431D1092F20110926501109202
:101B3000640166E08AE092E00E946410882339F034
:101B400085E292E00E94431D80E090E050C06091E9
:101B5000F4018091F5010E94E809833029F4809115
:101B600064019091650143C06091F4016F5F8091C1
:101B7000F5010E94530B882379F08091F90190912F
:101B8000FA0108969093FA018093F9016091F401AB
:101B90006F5F6093F401DDCF0E94730A95CE409190
:101BA000F4014150E091F301F0E0EE0FFF1FEA591C
:101BB000FE4F6091F501808191810E94780B109217
:101BC000F201A7CE4091F4014150E091F301F0E021
:101BD000EE0FFF1FEA59FE4F6091F5018081918160
:101BE0000E94780B1092F201D6CE8F5F4ECFCF912C
:101BF0001F910F91FF90EF9008950F931F93CF9334
:101C0000DF93C82F80E2809357028CE080935802C4
:101C1000CA3030F469E271E08EE492E00E9408205C
:101C20004AE050E06C2F8EE492E00E94D520D0E094
:101C30002197CC0FDD1FCE010E942724182FCE0143
:101C400001960E942724C12FD0E0DC2FCC27C80F9B
:101C5000D11D60E08EE492E00E9470110AE02AE05B
:101C60004BE060E38EE492E00E94BE1105E020E3C9
:101C700048E160E08EE492E00E94BE1161E08EE4F3
:101C800092E00E947011209719F028EF3FE002C007
:101C90002FEE3FE04BE060E38EE492E00E9466139B
:101CA0002097B1F01092570288E18093580263E2C6
:101CB00071E08EE492E00E9408204AE050E0BE010C
:101CC0008EE492E0DF91CF911F910F910C94DC2074
:101CD000DF91CF911F910F91089581E0809354027D
:101CE0008EE492E00E94171110925702109258024F
:101CF00063E370E18EE492E00E9498146BE271E07D
:101D00008EE492E00E94082066E371E08EE492E0A7
:101D10000E9408208091FD018F5F0C94FD0DCF93F0
:101D2000C091FD01CF5F0E946D0E80E092E00E94A5
:101D30006F178823D1F366E08AE092E00E94641076
:101D40008823B1F065ED7EE080E092E00E94AC195E
:101D500080E092E00E946F178823D1F340E064E0B6
:101D60008AE092E00E9484108111F2CF0E946D0EF1
:101D700062E08AE092E00E946410882339F0CF5F2D
:101D8000CC3008F0CBE08C2F0E94FD0D60E08AE0A3
:101D900092E00E946410882331F0C15009F4C1E040
:101DA0008C2F0E94FD0D64E08AE092E00E94641096
:101DB000882309F4BACFC150C093FD01CF91089593
:101DC00080E092E00E942A1A65ED7EE080E092E0D9
:101DD0000C94AC19EF92FF920F931F93CF93DF9364
:101DE0000E948F0E0E94F7090E945A0CF82E082FAD
:101DF000192F0115110571F1C091FD01D0E0CC0F33
:101E0000DD1FCE010E942724E82ECE0101960E94FC
:101E100027242E2D30E0322F2227280F311D0217C4
:101E2000130710F0232B71F4612FCE010E942F2491
:101E30002091FD01822F90E0880F991F6F2D019650
:101E40000E942F248091FD018B3020F48F5F8093BE
:101E5000FD01C8CFDF91CF911F910F91FF90EF90BF
:101E60000895109251021092500288E491E09093EC
:101E70004F0280934E020895CF93CFB7F89480918C
:101E80008702811127C0E2E5F3E18491EEE3F3E1FB
:101E90009491E82FF0E0EE0FFF1FE059FC4EA59162
:101EA000B4918C91892321F461E08AE00E94481F5B
:101EB00061E08AE00E940F1F8CB580618CBD8CB5FB
:101EC00080648CBD61E08DE00E940F1F61E08BE0BB
:101ED0000E940F1F809187028F5F80938702CFBF80
:101EE000CF91089521E0FC012083089570E085E002
:101EF0000C94871EAF92BF92CF92DF92EF92FF9227
:101F00000F931F93CF93DF93EC0189819A812FE088
:101F1000289F8001299F100D112485E10E946A1ECF
:101F2000800F911F24E0969587952A95E1F79A8373
:101F300089832881222391F1AC81AD80B12CC12C01
:101F4000D12CE885F9857F0100E010E06E817F816A
:101F50009B0140E050E08617970728F0BC01E81786
:101F6000F90708F4BF0180E090E01F921F921F92D2
:101F7000AF930E94E2206B830F900F900F900F9011
:101F800070E085E0DF91CF911F910F91FF90EF906E
:101F9000DF90CF90BF90AF900C94871EDF91CF91D0
:101FA0001F910F91FF90EF90DF90CF90BF90AF9077
:101FB0000895FC018CE39FE09383828384E0818316
:101FC00081E084870895CF93DF93EC018C819D811C
:101FD000892B81F18C858F7151F584E10E946A1EF5
:101FE000BC01882777FD8095982F0E946C2126EEF2
:101FF0003FE34EEC50E40E94F8210E943E219B01F9
:102000007B836A836115710581F084E08983FE0119
:1020100040E0848195812817390710F449830AC06C
:102020004F5F32964430A9F702C08FEF89838C85C9
:102030008F5F8C87DF91CF910895FC0188E08083CA
:1020400089E0818387E0828386E0838384E08483E0
:1020500082E0858381E186830895DF92EF92FF928B
:102060000F931F93CF93DF937C01EC0100E010E00E
:10207000DD24DA9462E088810E940F1F88810E942B
:102080007E1FF701E00FF11F892B21F487818F5FFD
:10209000878308C08781882349F08F3F11F4178216
:1020A00001C0D78260E088810E940F1F0F5F1F4F21
:1020B000219607301105F1F6DF91CF911F910F9115
:1020C000FF90EF90DF900895FC01E60FF11D81E095
:1020D0009781913009F080E00895FC01E60FF11D31
:1020E00081E097819F3F09F080E00895860F911D60
:1020F000FC01278130E050E04F5F5F4F81E0241703
:10210000350709F080E00895262F30E0FC01E20F4A
:10211000F31F8781423028F481508E3F48F080E0E1
:1021200008958F3FE1F3642F0E946B229130B9F73D
:1021300081E008958EBD00000DB407FEFDCF8EB581
:102140000895DC01643508F053C0403308F050C0F6
:1021500090968C919097342F359535953595E62F3F
:10216000FF27E7FDF095242F2770823099F4DF01D7
:10217000A857BD4F84E53802A00DB11D11248C91E4
:1021800090E0022E02C0959587950A94E2F780951B
:10219000817009C0833039F446271C968C914827FA
:1021A00040FF03C014C0811112C084E53802E00D65
:1021B000F11D1124E857FD4F81E090E0022E01C08F
:1021C000880F0A94EAF780959081982310C084E5DF
:1021D0003802E00DF11D1124E857FD4F81E090E039
:1021E000022E01C0880F0A94EAF79081982B908301
:1021F00008951F93CF93DF93EC01162FF89460E0BE
:102200008F850E94481F888918161CF460E00E9480
:10221000481F812F0E949A10888918161CF461E0CB
:102220000E94481F7894DF91CF911F91089528EF65
:1022300031E0E8E8F2E0DF01A9011D924150504091
:10224000E1F7DC0119961C9219971A961C920895D1
:10225000DF92EF92FF920F931F93CF93DF93EC01E6
:102260008C858F5F8C8788E8E82E82E0F82ED12C51
:102270006D2D6064CE010E94F91060E8CE010E94CD
:10228000F91061E08F850E94481F888918161CF498
:1022900060E00E94481F00E010E0F701E00FF11F2E
:1022A00080810E949A100F5F1F4F04351105A9F716
:1022B000888918161CF461E00E94481FD39484E5B5
:1022C000E80EF11C86E0D812D3CF60E4CE01DF9196
:1022D000CF911F910F91FF90EF90DF900C94F91028
:1022E000FC0160A361A30895FC0160A341A30895CC
:1022F000CF92DF92FF920F931F93CF93DF931F92A2
:10230000CDB7DEB76C01062FF42E10E0121754F48F
:10231000412F4F0D602FC60129830E94A1101F5F1E
:102320002981F4CF0F90DF91CF911F910F91FF90F2
:10233000DF90CF900895CF92DF92FF920F931F937B
:10234000CF93DF931F92CDB7DEB76C01062FF42E2B
:1023500010E0121754F4612F600F4F2DC60129832E
:102360000E94A1101F5F2981F4CF0F90DF91CF91C0
:102370001F910F91FF90DF90CF900895DF92EF9221
:10238000FF920F931F93CF93DF93EC01E62ED22E93
:10239000F42E112707FD1095040F111D47FD1A9506
:1023A0008F2D992787FD90958017910744F42D2D47
:1023B0004F2D6E2DCE010E949B11F394F1CFDF9132
:1023C000CF911F910F91FF90EF90DF9008958F9222
:1023D0009F92AF92BF92CF92DF92EF92FF920F93B4
:1023E0001F93CF93DF93EC01E62ED42E122FCC2433
:1023F000C394C21AB22EB194BB0CF12C802F8470FE
:10240000A82E802F8270982E802F8870882E0170C1
:10241000F1160CF04DC0C7FC04C01150B394B39436
:10242000CB0CF3948F2D880F8F5FC80EAA2071F00C
:10243000412F4D0D6F2D6E0DCE010E94A1104F2D1D
:102440004D0D612F6E0DCE010E94A110992071F0EB
:102450004D2D411B6F2D6E0DCE010E94A1104D2DF3
:102460004F19612F6E0DCE010E94A110882071F0CE
:102470004F2D4D0D6E2D611BCE010E94A110412FDD
:102480004D0D6E2D6F19CE010E94A110002309F48D
:10249000BFCF4D2D4F196E2D611BCE010E94A11093
:1024A0004D2D411B6E2D6F19CE010E94A110B0CF92
:1024B000DF91CF911F910F91FF90EF90DF90CF9020
:1024C000BF90AF909F908F9008958F929F92AF9200
:1024D000BF92CF92DF92EF92FF920F931F93CF9311
:1024E000DF93EC01B62EA42E122FDD24D394D21A42
:1024F000C22EC194CC0CFF24F394802F8170882EBF
:10250000992493949E0C02708FEF8F0D8117C4F560
:10251000D7FC04C01150C394C394DC0C8F2D880FDA
:102520008F5FD80E882099F0212F220F290D4A2D78
:10253000411B6F2D6B0DCE010E94781123E02E0DF3
:102540004A2D4F19612F6B0DCE010E947811002387
:1025500099F0212F220F290D4A2D411B6B2D6F1948
:10256000CE010E94781123E02E0D4A2D4F196B2DBC
:10257000611BCE010E947811F394E394E394C4CFDD
:10258000DF91CF911F910F91FF90EF90DF90CF904F
:10259000BF90AF909F908F9008959F92AF92BF92FF
:1025A000CF92DF92EF92FF920F931F93CF93DF931F
:1025B000EC01B62EF42EA22EDE2CD194DD0C9D2C37
:1025C000920E1E2D160F292D612F0E949B11CC24D7
:1025D000CA94C00ECF0C292D4C2D612FCE010E9424
:1025E0009B11D00EFE0C2D2D4F2D6B2DCE010E9478
:1025F0007811BA0C6FEF6B0D2D2D4F2DCE010E946F
:10260000781101E02E2D4F2D612FCE010E94E71190
:10261000DE2CD094DB0C02E02E2D4F2D6D2DCE0143
:102620000E94E711CE1804E02E2D4C2D6D2DCE0109
:102630000E94E71108E02E2D4C2D612FCE010E9443
:10264000E711DF91CF911F910F91FF90EF90DF90F5
:10265000CF90BF90AF909F900895AF92BF92CF92CE
:10266000DF92EF92FF920F931F93CF93DF93EC01D2
:10267000A62EC42EB22EF02E1E2DE194EE0CD12EDD
:10268000D60E2E2D2B0D6D2D0E94BE11FA94FE0C30
:10269000C10E6FEF6A0D6B0D611BEF2C01E0212F56
:1026A0004C2DCE010E94651202E0212F4C2D6D2D84
:1026B000CE010E946512DF91CF911F910F91FF9083
:1026C000EF90DF90CF90BF90AF9008956F927F9280
:1026D0008F929F92AF92BF92CF92DF92EF92FF9232
:1026E0000F931F93CF93DF93F901A49031965491E8
:1026F000FC01F0A064350CF00CC1BB24A7FCB09425
:10270000A62FBB27A7FDB095FD01EA0DFB1D1E16E8
:102710001F060CF0FEC040330CF0FBC0C52E042F8A
:10272000112707FD1095E801C50FD11D57FDDA955A
:102730001C161D060CF0EDC0E90122969501295FDB
:102740003F4F37FF02C0295F3F4F73E03595279514
:102750007A95E1F747FF0AC0C52EC40E209FA0015D
:10276000219F500D1124C41BD50B40E00C2D1127C7
:1027700007FD1095040F111D47FD1A950133110532
:102780001CF070E3C72EC41A67FD60E0E535F10563
:1027900014F0E4E5F0E01E2FFC0174857427862F09
:1027A000992787FD9095FC01EA1BFB0BDF015F0178
:1027B000F7E0AF22BB24E0E8F0E002C0F595E79532
:1027C000AA94E2F70E2FB7FD179653E0B595A7959B
:1027D0005A95E1F7AC0FBD1FE42FE77051E001C03F
:1027E000550FEA95EAF7459545954595E4E54E027E
:1027F000800D911D112488579D4F40E0DD24C7FCBA
:10280000D094BB24B3943327E42FF0E0EC15FD05FE
:102810000CF07FC0FD01E490F1E0FF1219C0EC0163
:10282000A02EFD01862E881A9C2E980C911608F079
:1028300067C09E2C9A2019F09880952A9882A694B9
:1028400029F43196E4906894AA24A7F82196ECCF55
:10285000F1101BC0752E7094EC01A02EFD01862E88
:10286000881A9C2E980C911608F04AC09E2C9A202B
:1028700019F0988097209882A69429F43196E490D4
:102880006894AA24A7F82196ECCFE3E0FE1631F075
:10289000EC01A02EFD01862E881A2EC0752E709494
:1028A000962EEC01A02EFD019116B0F48E2C8A20FC
:1028B00049F08880692C672660FE02C0852A01C025
:1028C00087208882A69429F43196E4906894AA24FB
:1028D000A7F893942196E8CF7B2512C09E2C9A20CE
:1028E00019F0988095269882A69429F43196E49060
:1028F0006894AA24A7F821969C2E980C911670F340
:10290000550F19F48C5A9F4F51E04F5FA20FB31F20
:102910007BCFDF91CF911F910F91FF90EF90DF90D0
:10292000CF90BF90AF909F908F907F906F900895C1
:10293000DC01FB0184918F5F14968C931497319680
:10294000E491EF5F1596EC9315976E5F7F4F5F965E
:102950007C936E935E970895EF920F93CF93DF93DE
:10296000EC014E876D872F87E98A088B81E0888785
:1029700088A319A28F8363E370E1CE010E949814AB
:102980000E943C0F8CB58F7D8CBD8CB58C7F816097
:102990008CBD8DB581608DBD8CB58C608CBD61E0CA
:1029A0008E850E940F1F61E08D850E940F1F61E0E0
:1029B0008F850E940F1F898918161CF461E00E9400
:1029C0000F1F888918161CF461E00E940F1F898967
:1029D00018166CF460E00E94481F6AE070E080E026
:1029E00090E00E94F51D61E089890E94481F8D8555
:1029F000992787FD9095FC01E85BFC4EE491F0E09F
:102A0000EE0FFF1FEA59FC4E259134913D8B2C8B24
:102A1000FC01EC5CFC4E84918B8F8E85992787FDA1
:102A20009095FC01E85BFC4EE491F0E0EE0FFF1F97
:102A3000EA59FC4E259134913B8B2A8BFC01EC5CCE
:102A4000FC4E84918A8F8889992787FD9095FC0197
:102A5000E85BFC4EE491F0E0EE0FFF1FEA59FC4EFC
:102A6000259134913F8B2E8BFC01EC5CFC4E8491C4
:102A70008C8F8F85992787FD9095FC01E85BFC4E34
:102A8000E491F0E0EE0FFF1FEA59FC4E25913491DE
:102A9000398F288FFC01EC5CFC4E84918D8F61E2B4
:102AA000CE010E94F91064E1CE010E94F9108B85DD
:102AB00087FF02C08FE78B876B856068CE010E941D
:102AC000F91060E2CE010E94F9106CE0CE010E9484
:102AD000F910CE01DF91CF910F91EF900C94281156
:102AE0006F927F928F929F92AF92BF92CF92DF921E
:102AF000EF92FF920F931F93CF93DF93EC01162F6A
:102B0000F42EB02EE8A064350CF081C08FE284175B
:102B10000CF47DC0EC81F0E031970E9FC0010F9F57
:102B2000900D1124860F911D67FD9A9518161906B0
:102B30000CF06DC08D81809FC0011124840F911D08
:102B400047FD9A95181619060CF061C0A62E962E10
:102B5000C22ED12C8A2D811B992787FD90952C811F
:102B600030E0821793070CF051C0215031098217D1
:102B7000930779F0C29ED001C39EB00DD29EB00DD6
:102B80001124A80FB91FEE8DFF8DEA0FFB1F749063
:102B900001C0712C8F2C6F2C282D2F19332727FD66
:102BA00030958D8190E0281739076CF570FE11C0C3
:102BB00081E0B81206C0482D6A2DCE010E94A110F6
:102BC0001EC00B2D2B2D462D692DCE010E94BE114E
:102BD00016C089A198A1891791F088A381E0B81245
:102BE00006C0482D6A2DCE010E94A11007C00B2DF2
:102BF0002B2D462D692DCE010E94BE11E8A27694A0
:102C00006B0C8394C9CF9B0CA394A4CFE8A2DF9153
:102C1000CF911F910F91FF90EF90DF90CF90BF90D9
:102C2000AF909F908F907F906F9008950F93CF9368
:102C3000DF93EC01262F6A3039F42D8198858A853F
:102C4000299F800D112422C06D3011F108854A851D
:102C500069850E94701548855C812985549F200DE7
:102C6000112429878F81882399F0332727FD3095F8
:102C700084E590E0459F80199109112482179307FC
:102C80003CF49D818A85499F800D11248A8719868D
:102C900081E090E0DF91CF910F9108958F929F9204
:102CA000AF92BF92CF92DF92EF92FF920F931F935A
:102CB000CF93DF93EC015C0186E8A80EB11CD5012F
:102CC0008C91882309F44DC08C3018F41CE0181B3B
:102CD00001C010E0FE01EA5AFF4F81E080836E01DF
:102CE000BEE4CB0ED11C60E0C6010E9470114E0103
:102CF000E3E58E0E911CD4018C9103E0080F9DE258
:102D0000F92E4F2D481B410F23E0E22E24E560E011
:102D1000C6010E942D1361E0C6010E947011F401EA
:102D2000808103E0080F4F2D481B410F24E560E030
:102D3000C6010E94CD12FE01E95AFF4F84E0808354
:102D40003196D4018C91181B115D1083CC57DF4F45
:102D500068817981C6010E94E51FF501808181505B
:102D60008083DF91CF911F910F91FF90EF90DF90C3
:102D7000CF90BF90AF909F908F900895DF92EF9289
:102D8000FF920F931F93CF93DF93EC018C8D9D8D5A
:102D9000892B09F49CC08E01025B1F4F40E061E06B
:102DA000C8010E94741185E5FE01EE5AFF4F908123
:102DB000891B3596808331961082698D613009F4C4
:102DC00062C028F0888D653008F074C06FC0CE01F5
:102DD00085960E94AF1B81E0FE01EA5AFF4F808377
:102DE00063E370E1C8010E9498141D8E1C8EFE01E1
:102DF000EC5AFF4F108238EAD32E7E018AE0E80EAB
:102E0000F11CCE010E946F178823D9F362E272E1B0
:102E1000C8010E94E51F6A8D7B8D4AE050E0C80121
:102E20000E94DC206DE072E1C8010E94E51F6D2D5B
:102E300062956F7070E04AE050E0C8010E94C020C7
:102E400062E072E1C8010E94E51F64E0C7010E94D0
:102E5000641081113CC0DA94A1F660E0CE010E94BA
:102E6000760F83B7817F846083BF83B7816083BF20
:102E700083B7816083BF889583B78E7F83BF83B715
:102E80008E7F83BFBECFCF58DF4F488159816A8183
:102E90007B814F705527662777274830510561059C
:102EA000710510F467E009C068E707C0882379F06E
:102EB0006B5F03C0882359F06FE2C801DF91CF91A7
:102EC0001F910F91FF90EF90DF900C940A20DF91FB
:102ED000CF911F910F91FF90EF90DF9008958F9207
:102EE0009F92AF92BF92EF92FF920F931F93CF9357
:102EF000DF93EC017C0100E8E00EF11CF70180801B
:102F00009180A280B3800E94C61D95018401061B9A
:102F1000170B280B390BB901A8015E011FE7A10EA1
:102F2000B11CF501808190E0A0E0B0E08E01055871
:102F30001F4F84179507A607B70750F4F801808143
:102F40009181A281B381892B8A2B8B2B09F040C000
:102F5000F80180819181A281B381892B8A2B8B2BEF
:102F6000A9F57E01F5E2EF0EF11CC7010E94AC1B32
:102F7000C7010E94191CC7010E94DD1CCE010E94DE
:102F80004E16CE010E94BE167E012EE4E20EF11C0A
:102F9000C7010E942811FE01EC5AFF4F8081811168
:102FA00003C0C7010E9417110E94D21DF80160835F
:102FB000718382839383FE01EB58FF4FC958DF4F23
:102FC00028813981621B730B7183608380E036C076
:102FD0000E94C61DF5012081620F711D811D911D8A
:102FE000F7016083718382839383FE01EF58FF4F63
:102FF00040815181628173814F5F5F4F6F4F7F4F7F
:103000004083518362837383F8011082118212829C
:1030100013820E94D21DFE01E958FF4F6083718325
:1030200082839383CE010E947A0FCE010A960E947A
:103030002D10CE0148960E94E30F81E0DF91CF91E1
:103040001F910F91FF90EF90BF90AF909F908F9046
:1030500008950F931F93CF93DF938C01EC01C25B14
:10306000DF4FCE010E9417116AED71E1CE010E947F
:10307000E51FCE010E9428118CB583608CBD8DB5F3
:103080008E7F8DBD8CE491E0EEEFFFE30995F801B2
:10309000EC5AFF4F108265EB71E1CE010E941520C2
:1030A000CE010E942811065F1F4FC8010E942D10FB
:1030B00064E0C8010E946410811107C062E370E0FF
:1030C00080E090E00E94F51DF0CFDF91CF911F913D
:1030D0000F9108952F923F924F925F926F927F923D
:1030E0008F929F92AF92BF92CF92DF92EF92FF9218
:1030F0000F931F93CF93DF93CDB7DEB729970FB60A
:10310000F894DEBF0FBECDBF998788871B012A01C7
:103110003C0180E7680E711CF3018081882309F46B
:1031200002C181E0E885F985EA5AFF4F8083E8858E
:10313000F985EB5AFF4F1082E885F985EC5AFF4F6D
:103140001082E885F985108E8F01025B1F4F61E0C8
:10315000C8010E947011888599858D5A9F4F9C8364
:103160008B83C884D98497E5C90ED11CE884F9847F
:10317000E8E5EE0EF11C888599858E5A9F4F9A835B
:103180008983E885F985EF58FF4FFE83ED838884B6
:103190009984FAE08F0E911CA884B98485E2A80E68
:1031A000B11C888599850E946F178823D1F3F1019E
:1031B0008491882321F0EB81FC81508101C050E093
:1031C00025E432E140E060E0C8015F830E946613BD
:1031D0005F814114510439F04CE0450F920160E0E9
:1031E000C8010E946613F60110828CE0F70180830B
:1031F000B101C8010E94E51FE981FA819081892F00
:10320000880F890F81958D5AF6018083EB81FC81AF
:103210009081892F880F890F8195835DF7018083C5
:10322000ED81FE81808184FF03C060E472E102C011
:103230006CE372E1C8010E941520E981FA81908156
:10324000892F880F890F81958D5AF6018083F701A8
:1032500080818F5F8083E885F98582A5882319F0B6
:1032600068E372E102C064E372E1C8010E941520C4
:10327000E981FA819081892F880F890F81958D5A74
:10328000F6018083F70180818F5F808360E372E1C4
:10329000C8010E94152065E0C4010E9464108823C3
:1032A00051F0E885F98562A56F5FC5010E946F1D29
:1032B000C5010E94591D64E0C4010E94641081117F
:1032C00013C0F3012081822F90E0A0E0B0E0ED81F7
:1032D000FE814081518162817381481759076A07D5
:1032E0007B07A8F02F3F99F08FEFF30180830885CB
:1032F00019850B5D1F4F60E0C8010E94561BC80175
:103300000E942D1D81E0E885F985808F0CC066E064
:10331000C4010E946410882309F443CF88859985ED
:103320000E94291834CF29960FB6F894DEBF0FBE3D
:10333000CDBFDF91CF911F910F91FF90EF90DF9064
:10334000CF90BF90AF909F908F907F906F905F9045
:103350004F903F902F900895AB0164E472E10C947C
:103360006A18E0E8F7E72591349181E02130304C8C
:1033700009F080E00895CF93DF93EC010E94B1192A
:103380009E01275A3F4FDE01A059BF4F882309F401
:103390003CC0E6E9F7E78491F9018083E7E9F7E7C4
:1033A000E491EC83E8E9F7E7E491ED83E9E9F7E7F5
:1033B000859194919F838E83EBE9F7E785919491B2
:1033C00099878887EDE9F7E7E491EBA7EEE9F7E75E
:1033D000E491EAA7EFE9F7E7E491EC93E0EAF7E795
:1033E000859194919D8F8C8FE2EAF7E78591949176
:1033F0009F8F8E8FE4EAF7E78591949199A388A334
:10340000E6EAF7E78591949120C08CE3F901808387
:103410001C822FEF2D8380E293E09F838E8384EDC7
:1034200093E09987888781E08BA78AA72C938CEA01
:103430009DE09D8F8C8F8EED9DE09F8F8E8F84E71A
:103440009EE099A388A38CE39FE09BA38AA3DF91CE
:10345000CF910895CF92DF92EF920F93CF93DF93A6
:10346000EC01FC01E158FF4F82E38083349741E097
:1034700050E060E070E040835183628373833B9748
:103480008FEF8083CE010E94BB19CE010E94720F84
:103490006FEFCE010E94760F6E018AE0C80ED11C3C
:1034A000C6010E941D10C6010E942D10CE01489633
:1034B0000E94D90F3EE0E32E0FE020E14BE06DE0EB
:1034C000CE01825B9F4F0E94AC14A596CE010E9454
:1034D000C21A65E0C6010E946410882351F060E0C2
:1034E000CE01DF91CF910F91EF90DF90CF900C94B0
:1034F0006F1D40E065EB72E1CE01DF91CF910F913E
:10350000EF90DF90CF900C94611BCF93DF9350E04E
:10351000FA01EE0FFF1FE80FF91F37852089E32F0F
:10352000F22FE60FF11DE60FF11D25913491FA01FE
:10353000EE0FFF1FE80FF91F30A3278FF9016591E8
:103540007491FC01D481D69FC02D1124E40FF51F86
:10355000C1A3F901A591B4916B2F70E0EC2FF0E0BD
:10356000DC01A40FB51F6E177F0720F4F901259128
:103570003491C32FCD9FC02D11249296CC93DF910F
:10358000CF91089521E0FC01248324E020A724E1C9
:1035900033E1308B278740E060E00E94851A61E0CC
:1035A00070E083E00E94871EE1EBF0E08081887F7D
:1035B00081608083F89410928000E1E8F0E010824E
:1035C000109285001092840088E191E09093890028
:1035D000809388008081886080838081816080837F
:1035E000EFE6F0E0808182608083789408950F9305
:1035F000FC01862F642F011129C08230D1F048F4DC
:10360000882391F0813011F540E0CF010F910C94A7
:10361000851A8330A9F08430C9F48481489F602DD5
:103620001124658F268F12C04B3008F06AE0668B3C
:103630000DC08481489F602D1124618F228F06C0A8
:103640008481489F602D1124638F248F0F910895EA
:10365000FC0121110EC0648B8481489F402D1124F0
:10366000458B15A214A213A281E0878B80938C0452
:10367000108E089580918C04882319F0809189041C
:1036800001C080E08093B4000895FC0161110DC079
:10369000178A158A14A213A2108E10928904109210
:1036A0008A0410928C040C943A1B0895CF93DF93F4
:1036B000EC01611103C00E94451B1982DF91CF917B
:1036C00008950F931F93CF93DF93EC018B0141116A
:1036D0000EC060E00E94561B1E870D871B8A1A8A47
:1036E00081E0898389E08E8B198E1B8E1D8EDF9180
:1036F000CF911F910F910895CF93DF93EC0161114A
:1037000028C08881882329F18981811122C0898577
:103710002F819885E22FF92FE80FF11DE80FF11D99
:10372000859194918F3F2FEF920711F4188211C069
:103730009C879927880F991FEA85FB85E80FF91F59
:103740006591749140E0CE010E94611B89858F5F75
:103750008987DF91CF91089560E00C947C1B60E035
:103760000C94561B0F93CF93DF93EC0161115DC056
:103770008981882309F459C08D89811156C02D850E
:103780003E858A899B89880F991F820F931FFC01B0
:10379000859194910097D1F48989882321F01B8A1F
:1037A0001A8AF90111C01982888160E0882331F0FA
:1037B000CE010E947C1B8A899B8925C0CE01DF91A6
:1037C000CF910F910C94451B85919491BC017695F6
:1037D00067957695679580FF1DC0AC01A6E056956C
:1037E0004795AA95E1F7292F2695269526952051EC
:1037F0004F716F7000E0CE010E94F71A8A899B8991
:1038000001969B8B8A8B880F991FED85FE85E80FAB
:10381000F91FDACF492F6F7320E0CE010E94281BD9
:103820008A899B8901969B8B8A8BDF91CF910F911F
:10383000089560E00C94B21BCF93DF93EC0161110B
:10384000B9C08F89882309F4B5C08D89811105C05D
:10385000CE01DF91CF910C94451B81508D8B8DA1B2
:10386000811138C08BA19CA101969C01220F331FAE
:10387000EF8DF8A1E20FF31F25913491422F47708D
:103880004EA3A90163E0569547956A95E1F7BA0101
:1038900076956795232F269526952FA36F732C81F8
:1038A000629F602D11246DA34170409388049CA3F6
:1038B0008BA329A130E08217930760F08AA18823A7
:1038C00029F0281B31093CA32BA304C060E0CE01E2
:1038D0000E94451B8DA181508DA3288D2F5F288FBD
:1038E0004C893FA1340F8C85380F3A836B8D66234A
:1038F00061F070E0822F992787FD90950E948B22BE
:103900008C8D869F300D11243A838A8190E0CB966E
:103910006BE370E00E948B228A833E893B83698D32
:10392000662371F0772767FD7095822F992787FDB1
:1039300090950E948B228A8D869F300D11243B83A7
:103940006D8D662391F0822F992787FD909570E009
:103950000E948B22CB0162E070E00E948B222E8DB0
:103960009B81289F900D11249B838B814F3339F0CD
:103970008A300CF089E087FD80E08B8301C01B82D8
:10398000F894EA81F0E0ED53FD4EE491E0938B046E
:1039900098A58D81989F802D11249B81899F802DD2
:1039A00011249EA1899F802D112480938A048093E5
:1039B00089047894DF91CF91089560E00C941C1CE9
:1039C00060918A04662321F180918D048F5F80933A
:1039D0008D0490918B048917D8F080918C0491E02C
:1039E000892780938C0410928D0480918804882309
:1039F00069F09091210183E4989F802D1124895BC7
:103A0000809321010E946B22909389040C943A1BAD
:103A100008951F920F920FB60F9211242F933F9388
:103A20004F935F936F937F938F939F93AF93BF93C6
:103A3000EF93FF930E94E01CFF91EF91BF91AF9134
:103A40009F918F917F916F915F914F913F912F91B6
:103A50000F900FBE0F901F901895CF93DF93EC013E
:103A600060E00E94561B8CE093E19E878D871B8A45
:103A70001A8A81E0898389E08E8B198E1B8E1D8EB8
:103A8000DF91CF910895CF93DF93EC0160E00E9426
:103A9000561B84E093E19E878D871B8A1A8A81E0FA
:103AA000898389E08E8B198E1B8E1D8EDF91CF91BD
:103AB0000895CF93DF93EC0160E00E94561B8EEFD8
:103AC00092E19E878D871B8A1A8A81E0898389E02B
:103AD0008E8B198E1B8E1D8EDF91CF910895FC0168
:103AE000862F992787FD9095668170E06F5F7F4FE5
:103AF0000E948B22858308951F920F920FB60F921A
:103B000011242F933F938F939F93AF93BF938091F3
:103B10008F0490919004A0919104B09192043091FF
:103B20008E0423E0230F2D3720F40196A11DB11D33
:103B300005C026E8230F0296A11DB11D20938E0417
:103B400080938F0490939004A0939104B093920477
:103B50008091930490919404A0919504B09196045F
:103B60000196A11DB11D8093930490939404A0939A
:103B70009504B0939604BF91AF919F918F913F911F
:103B80002F910F900FBE0F901F9018952FB7F8949C
:103B900060918F04709190048091910490919204AF
:103BA0002FBF08953FB7F8948091930490919404A7
:103BB000A0919504B091960426B5A89B05C02F3F0F
:103BC00019F00196A11DB11D3FBF6627782F892FDF
:103BD0009A2F620F711D811D911D42E0660F771FA4
:103BE000881F991F4A95D1F708958F929F92AF929F
:103BF000BF92CF92DF92EF92FF926B017C010E9405
:103C0000D21D4B015C01C114D104E104F104F1F0B7
:103C10000E943D210E94D21D681979098A099B09D9
:103C2000683E73408105910570F321E0C21AD10806
:103C3000E108F10888EE880E83E0981EA11CB11CF3
:103C4000C114D104E104F10429F7DDCFFF90EF9016
:103C5000DF90CF90BF90AF909F908F900895789411
:103C600084B5826084BD84B5816084BD85B5826081
:103C700085BD85B5816085BDEEE6F0E0808181601F
:103C80008083E1E8F0E0108280818260808380811F
:103C900081608083E0E8F0E0808181608083E1EBF7
:103CA000F0E0808184608083E0EBF0E080818160DF
:103CB0008083EAE7F0E08081846080838081826095
:103CC000808380818160808380818068808310927E
:103CD000C10008958E3008F08E5087702091220127
:103CE00090E4299F90011124822B80937C00809185
:103CF0007A00806480937A0080917A0086FDFCCF00
:103D0000809178002091790090E0922B08951F9384
:103D1000CF93DF93182FEB0161E00E940F1F2097D4
:103D200011F460E004C0CF3FD10539F461E0812F88
:103D3000DF91CF911F910C94481FE12FF0E0E05EDE
:103D4000FC4EE491E330F9F048F4E130B9F0E230B0
:103D5000A1F584B5806284BDC8BD34C0E730E9F008
:103D6000E83019F1E43049F5809180008062809359
:103D70008000D0938B00C0938A0024C084B58068F3
:103D800084BDC7BD1FC08091800080688093800083
:103D9000D0938900C093880015C08091B0008068DE
:103DA0008093B000C093B3000DC08091B0008062DA
:103DB0008093B000C093B40005C0C038D1050CF0AA
:103DC000B5CFAFCFDF91CF911F910895833081F0B0
:103DD00028F4813099F08230A1F008958730A9F05D
:103DE0008830B9F08430D1F4809180008F7D03C099
:103DF000809180008F7780938000089584B58F77BD
:103E000002C084B58F7D84BD08958091B0008F7706
:103E100003C08091B0008F7D8093B0000895CF9350
:103E2000DF9390E0FC01EC5CFC4E2491FC01E85B2C
:103E3000FC4E8491882349F190E0880F991FFC0182
:103E4000E059FC4EA591B4918A599C4EFC01C59154
:103E5000D4919FB7611108C0F8948C91209582236A
:103E60008C93888182230AC0623051F4F8948C913B
:103E7000322F309583238C938881822B888304C0D2
:103E8000F8948C91822B8C939FBFDF91CF910895F2
:103E90000F931F93CF93DF931F92CDB7DEB7282FD9
:103EA00030E0F901E05EFC4E8491F901EC5CFC4EDF
:103EB0001491F901E85BFC4E04910023C9F08823BA
:103EC00021F069830E94E61E6981E02FF0E0EE0F89
:103ED000FF1FEA59FC4EA591B4919FB7F8948C91BD
:103EE000611103C01095812301C0812B8C939FBF6A
:103EF0000F90DF91CF911F910F910895CF93DF9392
:103F0000282F30E0F901E05EFC4E8491F901EC5C71
:103F1000FC4ED491F901E85BFC4EC491CC2391F0A6
:103F200081110E94E61EEC2FF0E0EE0FFF1FE45A15
:103F3000FC4EA591B4912C912D2381E090E021F4C9
:103F400080E002C080E090E0DF91CF910895CF92B1
:103F5000DF92EF92FF920F931F93CF93DF937C0139
:103F60006A01EB0100E010E00C151D0571F069918C
:103F7000D701ED91FC910190F081E02DC7010995E9
:103F8000892B19F00F5F1F4FEFCFC801DF91CF9141
:103F90001F910F91FF90EF90DF90CF9008956115E2
:103FA000710581F0DB010D900020E9F7AD01415072
:103FB0005109461B570BDC01ED91FC910280F38106
:103FC000E02D099480E090E00895EF92FF920F9326
:103FD0001F93CF93DF938C017B01C0E0D0E0F7010A
:103FE000EC0FFD1F6491662359F0F801A081B181A7
:103FF000ED91FC91C8010995892B11F02196EFCF25
:10400000CE01DF91CF911F910F91FF90EF90089516
:104010000C94CF1FDC01ED91FC910190F081E02D1B
:10402000099463E571E00C94CF1F0F931F93CF9316
:10403000DF93EC010E94E51F8C01CE010E9411204C
:10404000800F911FDF91CF911F910F9108958F9253
:104050009F92AF92BF92DF92EF92FF920F931F93C6
:10406000CF93DF93CDB7DEB7A1970FB6F894DEBF3D
:104070000FBECDBF7C01F42FD52ECB0119A222306B
:1040800008F42AE08E010F5D1F4F822E912CA12C87
:10409000B12C6F2F7D2DA50194010E949F22F22F3C
:1040A000D32ECA01015011096A3014F4E0E301C0B3
:1040B000E7E3E60FD801EC93232B242B252B49F7BC
:1040C000B801C7010E94CF1FA1960FB6F894DEBFBA
:1040D0000FBECDBFDF91CF911F910F91FF90EF9059
:1040E000DF90BF90AF909F908F900895CF92DF9216
:1040F000EF92FF920F931F93CF93DF93EC016A012E
:104100007B012115310579F4E881F9810190F08175
:10411000E02D642FDF91CF911F910F91FF90EF90D1
:10412000DF90CF9009942A303105E9F477FF1AC067
:104130006DE20E940A208C0144275527BA014C19D0
:104140005D096E097F092AE0CE010E942720800FB9
:10415000911FDF91CF911F910F91FF90EF90DF9012
:10416000CF9008952AE0B701A601CE01DF91CF914B
:104170001F910F91FF90EF90DF90CF900C9427202C
:104180009A01AB01662757FD6095762F0C94762037
:104190002115310541F4DC01ED91FC910190F08194
:1041A000E02D642F09940C9427209A01462F50E0AB
:1041B00060E070E00C94C8209A01AB0160E070E010
:1041C0000C94C8204F925F926F927F92AF92BF92F1
:1041D000CF92DF92EF92FF920F931F93CF93DF93D3
:1041E000CDB7DEB729013A01621B730B840B950B27
:1041F00029893A894B895C892A193B094C095D094F
:10420000298B3A8B4B8B5C8B9B01AC0169897A893A
:104210008B899C890E945B22E418F508060917091E
:10422000A80197010E94C1222A0D3B1D4C1D5D1D56
:10423000CA01B901DF91CF911F910F91FF90EF90CB
:10424000DF90CF90BF90AF907F906F905F904F9036
:10425000089508950E942F1E0E9429210E94E00EB9
:10426000C0E0D0E00E94EA0E2097E1F30E94000037
:10427000F9CF0C9400230C949823089598D088F0DB
:104280009F5790F0B92F9927B751A0F0D1F0660F42
:10429000771F881F991F1AF0BA95C9F712C0B1305D
:1042A00081F09FD0B1E008959CC0672F782F8827B8
:1042B000B85F39F0B93FCCF3869577956795B3959C
:1042C000D9F73EF490958095709561957F4F8F4F0B
:1042D0009F4F0895E89409C097FB3EF49095809510
:1042E000709561957F4F8F4F9F4F9923A9F0F92FBC
:1042F00096E9BB279395F695879577956795B7953A
:10430000F111F8CFFAF4BB0F11F460FF1BC06F5F1F
:104310007F4F8F4F9F4F16C0882311F096E911C031
:10432000772321F09EE8872F762F05C0662371F052
:1043300096E8862F70E060E02AF09A95660F771F66
:10434000881FDAF7880F9695879597F9089597F95A
:104350009F6780E870E060E008959FEF80EC08952B
:1043600000240A9416161706180609060895002454
:104370000A9412161306140605060895092E0394CE
:10438000000C11F4882352F0BB0F40F4BF2B11F442
:1043900060FF04C06F5F7F4F8F4F9F4F089557FDA1
:1043A0009058440F551F59F05F3F71F04795880FA3
:1043B00097FB991F61F09F3F79F08795089512163A
:1043C00013061406551FF2CF4695F1DF08C01616E6
:1043D00017061806991FF1CF869571056105089497
:1043E0000895E894BB2766277727CB0197F90895AE
:1043F0000BD0C4CFB5DF28F0BADF18F0952309F051
:10440000A6CFABCF1124EECFCADFA0F3959FD1F397
:10441000950F50E0551F629FF001729FBB27F00D72
:10442000B11D639FAA27F00DB11DAA1F649F6627C7
:10443000B00DA11D661F829F2227B00DA11D621F16
:10444000739FB00DA11D621F839FA00D611D221FD0
:10445000749F3327A00D611D231F849F600D211DB4
:10446000822F762F6A2F11249F5750408AF0E1F057
:1044700088234AF0EE0FFF1FBB1F661F771F881FA0
:1044800091505040A9F79E3F510570F060CFAACFE0
:104490005F3FECF3983EDCF3869577956795B7958B
:1044A000F795E7959F5FC1F7FE2B880F911D9695B5
:1044B000879597F90895DB018F939F930E94E022DF
:1044C000BF91AF91A29F800D911DA39F900DB29FB0
:1044D000900D11240895991B79E004C0991F961737
:1044E00008F0961B881F7A95C9F780950895AA1B36
:1044F000BB1B51E107C0AA1FBB1FA617B70710F0CF
:10450000A61BB70B881F991F5A95A9F78095909500
:10451000BC01CD01089597FB072E16F4009407D037
:1045200077FD09D00E94772207FC05D03EF49095D4
:1045300081959F4F0895709561957F4F0895A1E2F1
:104540001A2EAA1BBB1BFD010DC0AA1FBB1FEE1F0D
:10455000FF1FA217B307E407F50720F0A21BB30B58
:10456000E40BF50B661F771F881F991F1A9469F7D4
:1045700060957095809590959B01AC01BD01CF0130
:104580000895052E97FB1EF400940E94D82257FD33
:1045900007D00E949F2207FC03D04EF40C94D8222F
:1045A00050954095309521953F4F4F4F5F4F08955F
:1045B00090958095709561957F4F8F4F9F4F08958F
:1045C0000E94F122A59F900DB49F900DA49F800D95
:1045D000911D11240895EE0FFF1F0590F491E02D19
:1045E0000994A29FB001B39FC001A39F700D811DCC
:1045F0001124911DB29F700D811D1124911D0895EC
:10460000CF93DF938230910510F482E090E0E09147
:104610009904F0919A0420E030E0A0E0B0E03097F7
:1046200039F14081518148175907B8F048175907A7
:1046300071F482819381109729F013969C938E9345
:1046400012972CC090939A048093990427C0211547
:10465000310531F04217530718F0A901DB0101C001
:10466000EF019A01BD01DF010280F381E02DD7CF78
:1046700021153105F9F0281B390B2430310580F460
:104680008A819B816115710521F0FB0193838283EF
:1046900004C090939A0480939904FE01329644C01A
:1046A000FE01E20FF31F8193919322503109398368
:1046B00028833AC02091970430919804232B41F429
:1046C00020910201309103013093980420939704C4
:1046D00020910001309101012115310541F42DB7E0
:1046E0003EB74091040150910501241B350BE09128
:1046F0009704F0919804E217F307A0F42E1B3F0BE8
:104700002817390778F0AC014E5F5F4F2417350743
:1047100048F04E0F5F1F5093980440939704819385
:10472000919302C0E0E0F0E0CF01DF91CF910895D6
:10473000CF93DF93009709F487C0FC01329713826F
:104740001282C0919904D0919A04209781F420811B
:104750003181280F391F8091970490919804821716
:10476000930779F5F0939804E09397046DC0DE0108
:1047700020E030E0AE17BF0750F412964D915C91E7
:1047800013979D014115510509F1DA01F3CFB38368
:10479000A28340815181840F951F8A179B0771F472
:1047A0008D919C911197840F951F02969183808320
:1047B00012968D919C9113979383828321153105D5
:1047C00029F4F0939A04E09399043EC0D90113961A
:1047D000FC93EE9312974D915D91A40FB51FEA17CC
:1047E000FB0779F480819181840F951F0296D9018E
:1047F00011969C938E938281938113969C938E93B2
:104800001297E0E0F0E08A819B81009719F0FE01A9
:10481000EC01F9CFCE01029628813981820F931FD6
:1048200020919704309198042817390769F430973C
:1048300029F410929A041092990402C013821282F1
:10484000D0939804C0939704DF91CF910895F9997C
:10485000FECF92BD81BDF89A992780B50895262F85
:10486000F999FECF1FBA92BD81BD20BD0FB6F89455
:0E487000FA9AF99A0FBE01960895F894FFCFB8
:10487E0000009B048000010000005B0E7D0DAA0C61
:10488E00280B080AF508A307D605940491026800C0
:10489E000101014D6F7665732020004C6576656CC5
:1048AE00204D656E75000A0A4C6576656C202011E8
:1048BE0020201000000000001616A71F4C4F414488
:1048CE004552000D0A006E616E00696E66006F76CD
:0448DE0066002E0042
:00000001FF
